{
  "contractName": "WhitePaper",
  "abi": [
    {
      "constant": true,
      "inputs": [],
      "name": "userCount",
      "outputs": [
        {
          "name": "",
          "type": "uint256"
        }
      ],
      "payable": false,
      "stateMutability": "view",
      "type": "function"
    },
    {
      "constant": true,
      "inputs": [
        {
          "name": "",
          "type": "uint256"
        }
      ],
      "name": "users",
      "outputs": [
        {
          "name": "id",
          "type": "uint256"
        },
        {
          "name": "userAddr",
          "type": "string"
        },
        {
          "name": "sectionsUnlocked",
          "type": "uint256"
        }
      ],
      "payable": false,
      "stateMutability": "view",
      "type": "function"
    },
    {
      "constant": true,
      "inputs": [],
      "name": "totalSections",
      "outputs": [
        {
          "name": "",
          "type": "uint256"
        }
      ],
      "payable": false,
      "stateMutability": "view",
      "type": "function"
    },
    {
      "anonymous": false,
      "inputs": [
        {
          "indexed": false,
          "name": "id",
          "type": "uint256"
        },
        {
          "indexed": false,
          "name": "userAddr",
          "type": "string"
        }
      ],
      "name": "UserCreated",
      "type": "event"
    },
    {
      "anonymous": false,
      "inputs": [
        {
          "indexed": false,
          "name": "id",
          "type": "uint256"
        },
        {
          "indexed": false,
          "name": "userAddr",
          "type": "string"
        },
        {
          "indexed": false,
          "name": "sectionsUnlocked",
          "type": "uint256"
        }
      ],
      "name": "UserUpdated",
      "type": "event"
    },
    {
      "constant": false,
      "inputs": [
        {
          "name": "_userAddr",
          "type": "string"
        }
      ],
      "name": "createUser",
      "outputs": [],
      "payable": false,
      "stateMutability": "nonpayable",
      "type": "function"
    },
    {
      "constant": false,
      "inputs": [
        {
          "name": "_id",
          "type": "uint256"
        },
        {
          "name": "_userAddr",
          "type": "string"
        }
      ],
      "name": "updateUser",
      "outputs": [],
      "payable": false,
      "stateMutability": "nonpayable",
      "type": "function"
    }
  ],
  "bytecode": "0x608060405260008055600560015534801561001957600080fd5b50610798806100296000396000f3fe608060405234801561001057600080fd5b50600436106100575760003560e01c806307973ccf1461005c578063365b98b21461007a578063507ffba51461012f5780636a1ecf12146101ea578063d85340e714610208575b600080fd5b6100646102cd565b6040518082815260200191505060405180910390f35b6100a66004803603602081101561009057600080fd5b81019080803590602001909291905050506102d3565b6040518084815260200180602001838152602001828103825284818151815260200191508051906020019080838360005b838110156100f25780820151818401526020810190506100d7565b50505050905090810190601f16801561011f5780820380516001836020036101000a031916815260200191505b5094505050505060405180910390f35b6101e86004803603602081101561014557600080fd5b810190808035906020019064010000000081111561016257600080fd5b82018360208201111561017457600080fd5b8035906020019184600183028401116401000000008311171561019657600080fd5b91908080601f016020809104026020016040519081016040528093929190818152602001838380828437600081840152601f19601f820116905080830192505050505050509192919290505050610395565b005b6101f26104b5565b6040518082815260200191505060405180910390f35b6102cb6004803603604081101561021e57600080fd5b81019080803590602001909291908035906020019064010000000081111561024557600080fd5b82018360208201111561025757600080fd5b8035906020019184600183028401116401000000008311171561027957600080fd5b91908080601f016020809104026020016040519081016040528093929190818152602001838380828437600081840152601f19601f8201169050808301925050505050505091929192905050506104bb565b005b60005481565b6002602052806000526040600020600091509050806000015490806001018054600181600116156101000203166002900480601f0160208091040260200160405190810160405280929190818152602001828054600181600116156101000203166002900480156103855780601f1061035a57610100808354040283529160200191610385565b820191906000526020600020905b81548152906001019060200180831161036857829003601f168201915b5050505050908060020154905083565b600080815480929190600101919050555060405180606001604052806000548152602001828152602001600181525060026000805481526020019081526020016000206000820151816000015560208201518160010190805190602001906103fe9291906106a6565b50604082015181600201559050507fee305ea110dac8054a0415771cedeb3372a69ef1c3916abb2f5e1b3658d77c0e600054826040518083815260200180602001828103825283818151815260200191508051906020019080838360005b8381101561047757808201518184015260208101905061045c565b50505050905090810190601f1680156104a45780820380516001836020036101000a031916815260200191505b50935050505060405180910390a150565b60015481565b6104c3610726565b6002600084815260200190815260200160002060405180606001604052908160008201548152602001600182018054600181600116156101000203166002900480601f0160208091040260200160405190810160405280929190818152602001828054600181600116156101000203166002900480156105845780601f1061055957610100808354040283529160200191610584565b820191906000526020600020905b81548152906001019060200180831161056757829003601f168201915b5050505050815260200160028201548152505090508060400180518091906001018152505080600260008581526020019081526020016000206000820151816000015560208201518160010190805190602001906105e39291906106a6565b50604082015181600201559050507fc1cd96e67887f45d4329ad94e5e332e36f17b9f7b511404a5c3bb7127ffe915f838383604001516040518084815260200180602001838152602001828103825284818151815260200191508051906020019080838360005b8381101561066557808201518184015260208101905061064a565b50505050905090810190601f1680156106925780820380516001836020036101000a031916815260200191505b5094505050505060405180910390a1505050565b828054600181600116156101000203166002900490600052602060002090601f016020900481019282601f106106e757805160ff1916838001178555610715565b82800160010185558215610715579182015b828111156107145782518255916020019190600101906106f9565b5b5090506107229190610747565b5090565b60405180606001604052806000815260200160608152602001600081525090565b61076991905b8082111561076557600081600090555060010161074d565b5090565b9056fea165627a7a72305820550bff82c9bcd0d29574fc1a871958a89037cdb7c7d37eb440371b120273f1300029",
  "source": "pragma solidity ^0.5.1;\n\ncontract WhitePaper {\n  uint public userCount = 0;\n  uint public totalSections = 5;\n  \n  struct User {\n      uint id;\n      string userAddr;\n      uint sectionsUnlocked;\n  }\n\n  mapping(uint => User) public users;\n  \n  event UserCreated(\n    uint id,\n    string userAddr\n  );\n\n  event UserUpdated(\n    uint id, \n    string userAddr, \n    uint sectionsUnlocked\n  );\n  \n  function createUser(string memory _userAddr) public {\n      userCount ++;\n      users[userCount] = User(userCount, _userAddr, 1);\n      emit UserCreated(userCount, _userAddr);\n  }\n\n  function updateUser(uint _id, string memory _userAddr) public {\n    User memory _user = users[_id];\n    _user.sectionsUnlocked ++;\n    users[_id] = _user;\n    \n    emit UserUpdated(_id, _userAddr, _user.sectionsUnlocked);\n  }\n}",
  "sourcePath": "/Users/polluterofminds/Documents/development/simpleid/whitepaper-app/contracts/Whitepaper.sol",
  "compiler": {
    "name": "solc",
    "version": "0.5.8+commit.23d335f2.Emscripten.clang"
  },
  "schemaVersion": "3.0.15",
  "updatedAt": "2019-10-25T19:29:27.664Z",
  "devdoc": {
    "methods": {}
  },
  "userdoc": {
    "methods": {}
  }
}